:040000004AEF0FF0C4
:1008000000323032320041636365736F20436F6E94
:1008100063656469646F00436C61766520426C6F48
:100820007175656164610044696769746520537519
:1008300020436C61766500436C61766520496E7675
:10084000616C6964610053697374656D20436F6EF8
:10085000666F7274004269656E76656E69646F20BA
:10086000416C00496E74656E746F733A004C757A12
:100870003A20002E2564200054656D3A0048723AF3
:10088000002E256400001EC036F01FC037F020C0C7
:1008900038F021C039F022C03AF023C03BF024C028
:1008A0003CF025C03DF03DBE58EF04F05BEF04F096
:1008B000010E5CEF04F0000E346E356A34503510D2
:1008C000D8B465EF04F067EF04F077EF04F03D1E55
:1008D0003C1E3B1E3A1E391E381E371E366C000E5B
:1008E0003722382239223A223B223C223D22000183
:1008F00073BF7DEF04F07FEF04F080EF04F074939A
:1009000073BF8DEF04F0735106E17205D8B08BEF21
:1009100004F08DEF04F093EF04F0000E316E010E41
:10092000306E97EF04F072C030F073C031F070C0D9
:1009300032F071C033F034503510D8A4A2EF04F077
:10094000A4EF04F0ABEF04F074A5A9EF04F0ABEF53
:1009500004F0AEEF04F03206D8A03306000E3F6E6E
:100960001F0E3E6E000E9F6F32EF05F03E06D8A0C0
:100970003F06800E3E24D96E000E3F20DA6E36C050
:1009800001F037C002F038C003F039C004F03AC0BB
:1009900005F03BC006F03CC007F03DC008F00A0E71
:1009A000096E000E0A6E000E0B6E000E0C6E000E2D
:1009B0000D6E000E0E6E000E0F6E000E106E71ECBE
:1009C0000AF001C026F002C027F003C028F004C0DE
:1009D00029F005C02AF006C02BF007C02CF008C093
:1009E0002DF026C013F028C014F00AEC0FF01350BD
:1009F000300FDF6E3006D8A031063206D8A033069D
:100A000036C001F037C002F038C003F039C004F03E
:100A10003AC005F03BC006F03CC007F03DC008F00E
:100A20000A0E096E000E0A6E000E0B6E000E0C6EA2
:100A3000000E0D6E000E0E6E000E0F6E000E106E8C
:100A4000ADEC09F001C036F002C037F003C038F059
:100A500004C039F005C03AF006C03BF007C03CF0D6
:100A600008C03DF03FBE3DEF05F03F5008E13E04B9
:100A7000D8A03DEF05F03FEF05F070EF05F03650E0
:100A80003710381039103A103B103C103D10D8A4E4
:100A90004CEF05F04EEF05F0B6EF04F031BE5BEF22
:100AA00005F0315006E13004D8B059EF05F05BEFA6
:100AB00005F0B6EF04F033BE66EF05F0335008E101
:100AC0003204D8A066EF05F068EF05F070EF05F08E
:100AD000000174B36EEF05F070EF05F0B6EF04F0AF
:100AE00034503510D8A477EF05F079EF05F081EF99
:100AF00005F0000174A57FEF05F081EF05F09FEF91
:100B000005F03E06D8A03F0634503510D8A48BEF30
:100B100005F08DEF05F093EF05F0000E2F6E2B0E14
:100B20002E6E97EF05F0000E2F6E2D0E2E6E800E9E
:100B30003E24D96E000E3F20DA6E2EC0DFFF1CC0AF
:100B400011F01DC012F0800E3E24136E000E3F20E7
:100B5000146E32C015F033C016F07EEC0DF011C0EB
:100B60001CF012C01DF0120000017A510208786FCB
:100B70007B51D8A0E82A0008796F010E056E270E78
:100B8000066E080E076E000E2AEC0FF0C00EC0ECC9
:100B90000EF0EAEC06F00001DF6FDF51D8B4D3EFBE
:100BA00005F0D5EF05F0E2EF05F0DF5198EC0EF01F
:100BB000AA0E00017F25D96EDA6A000EDA22DFC0A4
:100BC000DFFF7F2B020E0001CE6F040ECD6FBA0E39
:100BD000E82EFED7CD2FFCD7CE2FFAD700F0040E8B
:100BE00000017F65F6EF05F0F8EF05F0C9EF05F0BD
:100BF000AA0E016E000E026E010E036E080E046E48
:100C0000000E066E040E056EAEEC0CF001500210E4
:100C1000D8A40DEF06F00FEF06F06CEF06F0D2EC63
:100C20000FF0000E056E060E066E080E076E000E23
:100C30002AEC0FF0020E846E1F0E0001CE6F710EB3
:100C4000CD6F1E0EE82EFED7CD2FFCD7CE2FFAD7B4
:100C500000F0000E846E060E0001CE6F130ECD6FF5
:100C6000AD0EE82EFED7CD2FFCD7CE2FFAD700D071
:100C7000D2EC0FF0010E056E550E066E080E076ED3
:100C8000000E2AEC0FF0010E056E460E066E080EE1
:100C9000076E020E2AEC0FF01F0E0001CE6F710ED0
:100CA000CD6F1E0EE82EFED7CD2FFCD7CE2FFAD754
:100CB00000F023EC0BF0150E0001CE6F4B0ECD6F44
:100CC000BE0EE82EFED7CD2FFCD7CE2FFAD700F0E0
:100CD00038EC0CF059EF06F0D2EC0FF0010E056E77
:100CE000370E066E080E076E000E2AEC0FF0010E8E
:100CF000846E1F0E0001CE6F710ECD6F1E0EE82E9A
:100D0000FED7CD2FFCD7CE2FFAD700F0000E846E81
:100D1000010E00017A257A6F000E7B217B6F030E96
:100D20007A197B11D8A497EF06F099EF06F0B8EF87
:100D300006F0D2EC0FF0000E056E170E066E080ED0
:100D4000076E000E2AEC0FF0990E0001CE6F310EE7
:100D5000CD6FA20EE82EFED7CD2FFCD7CE2FFAD71F
:100D600000F0000E00017B6F000E7A6FD5EF06F0E9
:100D7000AF0E586E000E596E740E5A6E080E5B6EF2
:100D800078C05CF079C05DF06FEC0EF0000E056E7F
:100D9000630E066E080E076E020E2AEC0FF0AF0E01
:100DA000036E000E046E12EC0EF00B0E0001CE6FFF
:100DB000260ECD6F5D0EE82EFED7CD2FFCD7CE2FA1
:100DC000FAD700D0D2EC0FF0000E00017F6FB4EF25
:100DD00005F0120020EECFF010EE01F00F0EDBCF89
:100DE000E3FFE806FCE2000E116E000E136E000E2B
:100DF000126E12501310D8A400EF07F002EF07F0A4
:100E000034EF07F0FE0E8A6E420EE82EFED700D0B9
:100E10000CEF07F001C011F081A811EF07F013EFFC
:100E200007F00AEF07F017EF07F002C011F081AAF0
:100E30001CEF07F01EEF07F015EF07F022EF07F0A9
:100E400003C011F081AC27EF07F029EF07F020EF86
:100E500007F02DEF07F004C011F081AE32EF07F07C
:100E600034EF07F02BEF07F012041310D8A43BEF78
:100E700007F03DEF07F06FEF07F0FD0E8A6E420EB0
:100E8000E82EFED700D047EF07F005C011F081A88B
:100E90004CEF07F04EEF07F045EF07F052EF07F089
:100EA00006C011F081AA57EF07F059EF07F050EF95
:100EB00007F05DEF07F007C011F081AC62EF07F0BB
:100EC00064EF07F05BEF07F068EF07F008C011F080
:100ED00081AE6DEF07F06FEF07F066EF07F0020EDF
:100EE00012181310D8A477EF07F079EF07F0ABEFE3
:100EF00007F0FB0E8A6E420EE82EFED700D083EF7D
:100F000007F009C011F081A888EF07F08AEF07F019
:100F100081EF07F08EEF07F00AC011F081AA93EF7E
:100F200007F095EF07F08CEF07F099EF07F00BC093
:100F300011F081AC9EEF07F0A0EF07F097EF07F0FC
:100F4000A4EF07F00CC011F081AEA9EF07F0ABEFF2
:100F500007F0A2EF07F0030E12181310D8A4B3EF96
:100F600007F0B5EF07F0E7EF07F0F70E8A6E420ED5
:100F7000E82EFED700D0BFEF07F00DC011F081A81A
:100F8000C4EF07F0C6EF07F0BDEF07F0CAEF07F0B8
:100F90000EC011F081AACFEF07F0D1EF07F0C8EF34
:100FA00007F0D5EF07F00FC011F081ACDAEF07F0D2
:100FB000DCEF07F0D3EF07F0E0EF07F010C011F01F
:100FC00081AEE5EF07F0E7EF07F0DEEF07F0124A3A
:100FD000132A13BEF5EF07F0135009E1040E125C5B
:100FE000D8A0F5EF07F0F7EF07F0F9EF06F0115092
:100FF0001200096E0950D8B400EF08F002EF08F0B3
:1010000024EF08F004BE09EF08F007EF08F024EF22
:1010100008F001C005F002C006F003C007F004C0EC
:1010200008F0051E061E071E081E052A000E0622D1
:101030000722082205C00BF006C00CF007C00DF017
:1010400008C00EF02CEF08F001C00BF002C00CF04D
:1010500003C00DF004C00EF0015002100310041084
:10106000D8A435EF08F037EF08F041EF08F0000E94
:10107000016E000E026E000E036E000E046ED2EFC3
:1010800008F0960E0A6E4BEF08F00A2AD8900E323E
:101090000D320C320B32000E0B14056E000E0C14C8
:1010A000066E000E0D14076EFE0E0E14086E05502F
:1010B000061007100810D8A460EF08F062EF08F0DF
:1010C00045EF08F070EF08F00A2A010E0B26000E1B
:1010D0000C220D220E22D8900E320D320C320B3221
:1010E000000E0B14056E000E0C14066E000E0D148F
:1010F000076EFF0E0E14086E05500610071008103C
:10110000D8A485EF08F087EF08F064EF08F08FEFC0
:1011100008F00A06D8900B360C360D360E360DBE8A
:1011200094EF08F096EF08F09EEF08F0020E0A60C8
:101130009CEF08F09EEF08F089EF08F00AB0A3EFEB
:1011400008F0A5EF08F0A6EF08F00D9ED8900A323F
:101150000AC005F0066A076A086A05C008F0076A4F
:10116000066A056A05500B1206500C1207500D1244
:1011700008500E120950D8B4C0EF08F0C2EF08F0C2
:10118000CAEF08F004BEC9EF08F0C7EF08F0CAEFD5
:1011900008F00E8E0BC001F00CC002F00DC003F081
:1011A0000EC004F0120042C0D9FF43C0DAFFDECF08
:1011B000F6FFDDCFF7FF0800F550250AD8A4E3EFCE
:1011C00008F0E5EF08F091EF09F042C0D9FF43C005
:1011D000DAFFDE2A000EDD22000E0001716F000E24
:1011E000706F70C074F071C075F07269736942C03D
:1011F000D9FF43C0DAFFDECFF6FFDDCFF7FF0800EF
:10120000F550640AD8B407EF09F009EF09F01BEFB5
:1012100009F042C0D9FF43C0DAFFDECFF6FFDDCFD1
:10122000F7FF0800F550690AD8A419EF09F01BEF81
:1012300009F05BEF09F042C0D9FF43C0DAFFDE2AB4
:10124000000EDD2244C0D9FF45C0DAFFDFCF46F0F3
:10125000020EDE26DFCF47F0000EDD2246C0D9FFAA
:1012600047C0DAFFDECF48F0DDCF49F0000E49BEBF
:10127000FF0E4A6E4B6E4C6E4D6E4E6E4F6E40C002
:101280001CF041C01DF048C01EF049C01FF04AC00C
:1012900020F04BC021F04CC022F04DC023F04EC0D6
:1012A00024F04FC025F043EC04F01CC040F01DC0FA
:1012B00041F0ACEF09F042C0D9FF43C0DAFFDECF06
:1012C000F6FFDDCFF7FF0800F550250AD8A46BEF35
:1012D00009F06DEF09F084EF09F042C0D9FF43C077
:1012E000DAFFDE2A000EDD22000E026E250E016EF0
:1012F00040C003F041C004F019EC0DF0000E416E47
:10130000010E406EACEF09F042C0D9FF43C0DAFFD6
:10131000DE2A000EDD22000E416E000E406EACEFA4
:1013200009F042C0D9FF43C0DAFFDECFF6FFDDCFC0
:10133000F7FF0800F550016E026A40C003F041C09B
:1013400004F019EC0DF042C0D9FF43C0DAFFDE2AE9
:10135000000EDD227EEF09F01200000E126E10BEAC
:10136000B6EF09F0B4EF09F0C8EF09F0101E0F1E38
:101370000E1E0D1E0C1E0B1E0A1E096C000E0A22EC
:101380000B220C220D220E220F221022010E126EB1
:1013900008BECFEF09F0CDEF09F0E1EF09F0081E2C
:1013A000071E061E051E041E031E021E016C000EF3
:1013B0000222032204220522062207220822010E0D
:1013C000121A20EE13F0070EDE6AE806FDE209505D
:1013D0000A100B100C100D100E100F101010D8B4B6
:1013E000F4EF09F0F6EF09F048EF0AF0010E116E84
:1013F00004EF0AF0D89009360A360B360C360D3653
:101400000E360F361036112A10AE09EF0AF00BEF28
:101410000AF0FAEF09F0D89013361436153616365E
:101420001736183619361A360950015C0A50025818
:101430000B5003580C5004580D5005580E500658C8
:101440000F50075810500858D8A029EF0AF02BEF7A
:101450000AF03CEF0AF00950015E0A50025A0B50A4
:10146000035A0C50045A0D50055A0E50065A0F508C
:10147000075A1050085A1380D89010320F320E328B
:101480000D320C320B320A320932112E0BEF0AF0F8
:101490001250D8B44EEF0AF050EF0AF060EF0AF0A5
:1014A0001A1E191E181E171E161E151E141E136C4A
:1014B000000E1422152216221722182219221A228F
:1014C00013C001F014C002F015C003F016C004F000
:1014D00017C005F018C006F019C007F01AC008F0D0
:1014E0001200000E126E08BE7AEF0AF078EF0AF0D2
:1014F0008CEF0AF0081E071E061E051E041E031EA2
:10150000021E016C000E0222032204220522062282
:1015100007220822010E126E10BE93EF0AF091EF1F
:101520000AF0A3EF0AF0101E0F1E0E1E0D1E0C1E59
:101530000B1E0A1E096C000E0A220B220C220D2221
:101540000E220F22102209500A100B100C100D1041
:101550000E100F101010D8B4B0EF0AF0B2EF0AF06E
:10156000FAEF0AF0010E116EC0EF0AF0D8900936BA
:101570000A360B360C360D360E360F361036112A5B
:1015800010AEC5EF0AF0C7EF0AF0B6EF0AF0095047
:10159000015C0A5002580B5003580C5004580D506F
:1015A00005580E5006580F50075810500858D8A02C
:1015B000DCEF0AF0DEEF0AF0EEEF0AF00950015E10
:1015C0000A50025A0B50035A0C50045A0D50055A37
:1015D0000E50065A0F50075A1050085AD890103221
:1015E0000F320E320D320C320B320A320932112E0A
:1015F000C7EF0AF01250D8B400EF0BF002EF0BF077
:1016000012EF0BF0081E071E061E051E041E031E09
:10161000021E016C000E0222032204220522062271
:101620000722082201C001F002C002F003C003F04B
:1016300004C004F005C005F006C006F007C007F0BE
:1016400008C008F01200C2EC0FF09AEC0FF041EC69
:101650000EF00001CA6F41EC0EF00001C96F41ECC1
:101660000EF00001CC6F41EC0EF00001CB6F41ECAD
:101670000EF0D2EC0FF0BF0E586E000E596E820EB7
:101680005A6E080E5B6ECAC05CF05D6A6FEC0EF0BD
:10169000040E056EBF0E066E000E076E010E2AECDC
:1016A0000FF0BF0E586E000E596E730E5A6E080E74
:1016B0005B6EC9C05CF05D6A6FEC0EF0BF0E036E2E
:1016C000000E046E12EC0EF0250E98EC0EF0000EDB
:1016D000056E7D0E066E080E076E010E2AEC0FF0E9
:1016E000BF0E586E000E596E820E5A6E080E5B6E5B
:1016F000CCC05CF05D6A6FEC0EF0050E056EBF0E9F
:10170000066E000E076E020E2AEC0FF0BF0E586E2A
:10171000000E596E810E5A6E080E5B6ECBC05CF0E7
:101720005D6A6FEC0EF0BF0E036E000E046E12ECDD
:101730000EF0DF0E98EC0EF0430E98EC0EF0000E5B
:10174000056E780E066E080E076E020E2AEC0FF07C
:10175000150E5F6E4B0E5E6EBE0EE82EFED75E2E31
:10176000FCD75F2EFAD700D01200033404340A6E7F
:101770000A50D8A4BEEF0BF0C0EF0BF0CAEF0BF08D
:10178000000E016E000E026E000E036E000E046E5F
:1017900037EF0CF001C005F002C006F003C007F0FF
:1017A00004C008F0200EDAEF0BF0D89008320732B0
:1017B00006320532E82ED5EF0BF00550096E038E88
:1017C000FF0E0116FF0E0216FF0E0316000E041682
:1017D000960E0A5E0ABEF1EF0BF0EFEF0BF007EF8B
:1017E0000CF00A50800A970FD8B0F9EF0BF0FBEF1E
:1017F0000BF0FDEF0BF0C0EF0BF0D890043203328A
:10180000023201320A3EFDEF0BF01FEF0CF01F0E0B
:101810000A640DEF0CF00FEF0CF017EF0CF0C0EFB7
:101820000BF0D89001360236033604360A060A5009
:10183000D8A41DEF0CF01FEF0CF011EF0CF00950C5
:10184000D8B425EF0CF027EF0CF02FEF0CF0041EAE
:10185000031E021E016C000E02220322042201C09C
:1018600001F002C002F003C003F004C004F0120053
:10187000700ED312D350FC0B0209D36E010E926E80
:1018800080EC0FF0C00EC0EC0EF0C150F00B0E0952
:10189000C16ECF0EC116C30EC216C050C70B1009C1
:1018A000C06EC050F80B0109C06EC08EC280C282EB
:1018B000C2B25DEF0CF05FEF0CF058EF0CF0C4CF4C
:1018C00076F00001776B76515E6EC350766F5EC026
:1018D00077F076C001F077C002F0036A046A000E68
:1018E000F9EC07F001C06AF002C06BF003C06CF0C5
:1018F00004C06DF0A00E586E000E596E820E5A6E26
:10190000080E5B6E6AC001F06BC002F06CC003F0A1
:101910006DC004F0B5EC0BF001C05CF002C05DF0EE
:101920006FEC0EF0000E056E6D0E066E080E076E63
:10193000000E2AEC0FF0A00E036E000E046E12ECE7
:101940000EF0150E5F6E4B0E5E6EBE0EE82EFED7CD
:101950005E2EFCD75F2EFAD700D0120001C008F02F
:1019600002C009F003C00AF004C00BF00506D8A0BD
:101970000606052806E10628D8A4C1EF0CF0C3EF3F
:101980000CF0D0EF0CF0000E026E000E016E18EF9E
:101990000DF0084A092A0A4A0B2A0506D8A00606AD
:1019A00008C0D9FF09C0DAFFDF50D8B4DAEF0CF075
:1019B000DCEF0CF007EF0DF00AC0F6FF0BC0F7FFED
:1019C0000800F5500009D8B4E8EF0CF0EAEF0CF08D
:1019D00007EF0DF005500610D8B4F1EF0CF0F3EF5F
:1019E0000CF007EF0DF008C0D9FF09C0DAFFDF5097
:1019F000076E0AC0F6FF0BC0F7FF0800F550071886
:101A0000D8B405EF0DF007EF0DF0C9EF0CF008C0EA
:101A1000D9FF09C0DAFFDF50076E0AC0F6FF0BC01E
:101A2000F7FF0800F550075C016E026AD8A00206B5
:101A3000120003500410D8B420EF0DF022EF0DF087
:101A40002BEF0DF003500410D8A429EF0DF02BEF6D
:101A50000DF030EF0DF00150ECEC0FF07DEF0DF0DC
:101A600020EE09F00350D9260450DA22DE50DE10B1
:101A7000D8B43DEF0DF03FEF0DF05AEF0DF020EE32
:101A800009F00350D9260450DA2210EE03F0035077
:101A9000E1260450E222DE50E65CE650800A096E40
:101AA000DE50800A0958D8B058EF0DF05AEF0DF00B
:101AB0007DEF0DF020EE03F00350D9260450DA221A
:101AC000DECF05F0DDCF06F003C0D9FF04C0DAFF9A
:101AD000DECF07F0DDCF08F005500724D96E0650A1
:101AE0000820DA6E01C0DFFF20EE03F00350D92694
:101AF0000450DA22DE2A000EDD221200000174A159
:101B000084EF0DF086EF0DF090EF0DF013C00AF0AA
:101B100014C00BF011C00CF012C00DF0E8EC0EF088
:101B200016BE95EF0DF097EF0DF09DEF0DF015C07F
:101B30001AF016C01BF0A1EF0DF0000E1B6E000E88
:101B40001A6E000E196E000E186EB3EF0DF0000E37
:101B5000026E200E016E11C003F012C004F019ECE9
:101B60000DF0184A192A1A50185C1950800A176E7D
:101B70001B50800A1758D8A0C0EF0DF0C2EF0DF02F
:101B8000A7EF0DF0000174B1C8EF0DF0CAEF0DF032
:101B9000D4EF0DF013C00AF014C00BF011C00CF01C
:101BA00012C00DF0E8EC0EF013C001F014C002F00A
:101BB00065EC0FF01A500124116E1B500220126EBA
:101BC000120052C056F053C057F0000E00016F6F64
:101BD000000E6E6FFFEF0DF050C040F051C041F0AD
:101BE000560E426E000E436E54C044F055C045F090
:101BF000D3EC08F0405000016E2741506F2356C0CF
:101C0000F6FF57C0F7FF0800F5500009D8A40BEF06
:101C10000EF00DEF0EF0ECEF0DF06EC050F06FC057
:101C200051F0120028EF0EF003C0F6FF04C0F7FFDA
:101C3000F86A070EF76403D00800F55005D0F6CF18
:101C4000E1FFF7CFE2FFE75098EC0EF0034A042AD9
:101C500003C0F6FF04C0F7FFF86A070EF76403D06D
:101C60000800F55005D0F6CFE1FFF7CFE2FFE750CF
:101C70000009D8A43EEF0EF040EF0EF014EF0EF086
:101C80001200000E026E000E016E80A24AEF0EF0EE
:101C90004CEF0EF045EF0EF0140EE82EFED780A2AA
:101CA00054EF0EF056EF0EF05AEF0EF0D8800236D9
:101CB0005DEF0EF002500224026E80B262EF0EF071
:101CC00064EF0EF05DEF0EF0012A070E01646BEF7A
:101CD0000EF06DEF0EF045EF0EF0025012005C0EAC
:101CE0000001B26F000EB36F58C0B4F059C0B5F028
:101CF000000EB86F000EB76F000EBE6F000EBD6F06
:101D0000B40E506E000E516E5AC052F05BC053F0CC
:101D1000B20E546E000E556EE1EC0DF00001B7519D
:101D20005824D96EB8515920DA6E000EDF6E1200B9
:101D3000026E02C001F0F00E01168C500F0B011064
:101D40008C6E8C808C8200F08C92030E016E980E4B
:101D5000E82EFED7012EFCD702C001F0013AF00EAA
:101D600001168C500F0B01108C6E8C8200F08C923F
:101D7000080E016ECA0EE82EFED7012EFCD7120007
:101D8000026E02C001F0F00E01168C500F0B011014
:101D90008C6E8C908C8200F08C92030E016E980EEB
:101DA000E82EFED7012EFCD702C001F0013AF00E5A
:101DB00001168C500F0B01108C6E8C8200F08C92EF
:101DC000080E016ECA0EE82EFED7012EFCD71200B7
:101DD000000E106E000E0F6EF9EF0EF00EC001F047
:101DE000026A0CC003F00DC004F019EC0DF00F4AAC
:101DF000102A0F500A24D96E10500B20DA6EDF50D3
:101E00000E6E0E50D8A407EF0FF009EF0FF0EEEFB3
:101E10000EF0120014BE17EF0FF0145006E1130479
:101E2000D8B015EF0FF017EF0FF025EF0FF013C03C
:101E300015F014C016F0151E161E154A162A15C0E8
:101E400013F016C014F029EF0FF013C013F014C0F4
:101E500014F01200086E020E086031EF0FF033EF3D
:101E60000FF03CEF0FF005500F0B8009096E095081
:101E7000C0EC0EF043EF0FF005500F0BC009096ED8
:101E80000950C0EC0EF006C003F007C004F012ECDD
:101E90000EF01200BA0EF66E1F0EF76E000EF86E00
:101EA00000EECFF010EE11F00900F5CFEEFFE55097
:101EB000E150FAE100EE60F0520EEE6AE806FDE154
:101EC000000EF86E0001B0EF0FF001C003F002C089
:101ED00004F06DEF0FF0014A022A01C0D9FF02C0E1
:101EE000DAFFDF50D8A477EF0FF079EF0FF06BEF48
:101EF0000FF00350015C016E04500258026E120094
:101F0000000E956E270E036EF50EE82EFED7032EFB
:101F1000FCD700F0020EC0EC0EF0280EC0EC0EF064
:101F2000010EC0EC0EF00C0EC0EC0EF0060EC0EC74
:101F30000EF0120080B29FEF0FF0A1EF0FF09AEFBA
:101F40000FF080A2A6EF0FF0A8EF0FF0A1EF0FF0B7
:101F500080B2ADEF0FF0AFEF0FF0A8EF0FF012006F
:101F6000720ED36E000E966E010E926EC150F00B83
:101F70000E09C16E80EC0FF0E6EC0FF0B4EC05F04A
:101F800000EF00F0929289922F0E016EC00EE82EA3
:101F9000FED7012EFCD789820D0EE82EFED700F069
:101FA00092821200010EC0EC0EF0080E036ECA0EF3
:101FB000E82EFED7032EFCD71200313233413435E0
:0B1FC0003642373839432A30234430C2
:0E1FCC00F00E9316F00E9312F19E120012000A
:020000040020DA
:08000000FFFFFFFFFFFFFFFF00
:020000040030CA
:0E0000000008191EFF0181FF0FC00FE00F4026
:00000001FF
