:040000006BEF12F0A0
:100800000041636365736F20436F6E636564696461
:100810006F00436C61766520496E76616C69646136
:100820002000436C61766520426C6F717565616470
:10083000610044696769746520537520436C617673
:10084000650053697374656D20436F6E666F7274D3
:10085000004269656E76656E69646F00496E746505
:100860006E746F733A0054656D3A0025642000255C
:0308700064000021
:100874000450800B0D6E04500424136E03AE45EF38
:1008840004F047EF04F048EF04F013801350D8B499
:100894004EEF04F050EF04F063EF04F01328D8A4F3
:1008A40056EF04F058EF04F060EF04F0000E016E10
:1008B400000E026E000E036E000E046E038E6BEFCC
:1008C40004F0000E016E000E026E000E036E000EA8
:1008D400046E0850800B0D1A08500824126E07AEDF
:1008E40076EF04F078EF04F079EF04F01280125000
:1008F400D8B47FEF04F081EF04F094EF04F01228F1
:10090400D8A487EF04F089EF04F091EF04F0000E0F
:10091400056E000E066E000E076E000E086E078E42
:100924009CEF04F0000E056E000E066E000E076EBE
:10093400000E086E1250D8B4A2EF04F0A4EF04F035
:10094400ACEF04F01350D8A4AAEF04F0ACEF04F019
:10095400B6EF04F0000E016E000E026E000E036E80
:10096400000E046E4EEF06F007500102F3CF18F0AC
:10097400F4CF19F018500E6E0F6A106A116A1950EC
:10098400146E156A166A176A06500202F3CF18F03D
:10099400F4CF19F018500E26000E0F221022112247
:1009A40019501426000E1522162217220550030290
:1009B400F3CF18F0F4CF19F018500E26000E0F22C2
:1009C4001022112219501426000E15221622172265
:1009D40010C011F00FC010F00EC00FF00E6A0550D9
:1009E4000202F3CF18F0F4CF19F018500E26195064
:1009F4000F22000E1022000E112206500102F3CF26
:100A040018F0F4CF19F018500E2619500F22000ECA
:100A14001022000E112210C011F00FC010F00EC0F1
:100A24000FF00E6A05500102F3CF18F0F4CF19F05D
:100A340018500E2619500F22000E1022000E1122FB
:100A440007500202F3CF18F0F4CF19F0185014260F
:100A540019501522000E1622000E1722065003020A
:100A6400F3CF18F0F4CF19F01850142619501522AA
:100A7400000E1622000E172207500302F3CF18F0BF
:100A8400F4CF19F01850096E19500A6E0B6A0C6AEB
:100A94000BC00CF00AC00BF009C00AF0096A095037
:100AA40014260A5015220B5016220C5017220EC081
:100AB40009F00FC00AF010C00BF011C00CF0190EB1
:100AC40069EF05F0D8900C320B320A320932E82E65
:100AD40064EF05F0095014260A5015220B50162213
:100AE4000C50172210C011F00FC010F00EC00FF000
:100AF4000E6A125013C009F00A6A0926000E0A226F
:100B0400820E0924186EFF0E0A20196E9FEF05F05D
:100B1400D890143615361636173611AE94EF05F004
:100B240096EF05F097EF05F01480D8900E360F3647
:100B3400103611361806D8A0190616AEA4EF05F023
:100B4400A6EF05F08AEF05F0000E126E11AEADEFC0
:100B540005F0AFEF05F0D3EF05F0FF0E0E14096EAC
:100B6400FF0E0F140A6EFF0E10140B6E7F0E11147D
:100B74000C6E09500A100B100C10D8B4C4EF05F019
:100B8400C6EF05F0CAEF05F0010E126ED3EF05F0C3
:100B940014A0CFEF05F0D1EF05F0D3EF05F0C6EFC9
:100BA40005F01250D8B4D9EF05F0DBEF05F0FFEFF4
:100BB40005F0010E1426000E15221622172217A086
:100BC400E6EF05F0E8EF05F0FFEF05F014C009F0DB
:100BD40015C00AF016C00BF017C00CF00C340C3220
:100BE4000B320A32093209C014F00AC015F00BC0E6
:100BF40016F00CC017F0184A192A19BE0AEF06F0AD
:100C0400195008E11828D8A00AEF06F00CEF06F0F6
:100C140016EF06F0000E146E000E156E800E166EA2
:100C24007F0E176E44EF06F019BE23EF06F019503D
:100C340006E11804D8B021EF06F023EF06F02FEFF9
:100C440006F0000E146E000E156E000E166E000EE9
:100C5400176E000E0D6E44EF06F018C013F0FF0E71
:100C64001416FF0E15167F0E1616000E171613A077
:100C74003EEF06F040EF06F041EF06F0168ED890F6
:100C84001330176E0D50171214C001F015C002F086
:100C940016C003F017C004F012001D50800B2A6E1A
:100CA4001D501D24316E1CAE5AEF06F05CEF06F0A9
:100CB4005DEF06F031803150D8B463EF06F065EF94
:100CC40006F07AEF06F03128D8A46BEF06F06DEF4A
:100CD40006F075EF06F0000E1A6E000E1B6E000E85
:100CE4001C6E000E1D6E1C8E000E1D6E82EF06F033
:100CF400000E1A6E000E1B6E000E1C6E000E1D6E92
:100D04002150800B2A1A21502124326E20AE8DEFFF
:100D140006F08FEF06F090EF06F032803250D8B430
:100D240096EF06F098EF06F0ADEF06F03228D8A45F
:100D34009EEF06F0A0EF06F0A8EF06F0000E1E6E80
:100D4400000E1F6E000E206E000E216E208E000E0F
:100D5400216EB5EF06F0000E1E6E000E1F6E000E23
:100D6400206E000E216E1E501F1020102110D8A4DA
:100D7400BEEF06F0C0EF06F0D8EF06F0000E1A6ED4
:100D8400000E1B6E000E1C6E000E1D6E800E1C12DB
:100D94007F0E1D122A501D121AC01AF01BC01BF020
:100DA4001CC01CF01DC01DF01BEF08F03150D8A46E
:100DB400DEEF06F0E0EF06F0EAEF06F0000E1A6E42
:100DC400000E1B6E000E1C6E000E1D6E1BEF08F055
:100DD400325031C022F0236A225E000E235A7F0E65
:100DE40022242B6E000E23202C6E1AC026F01BC06A
:100DF40027F01CC028F01DC029F0000E1A6E000E4A
:100E04001B6E000E1C6E000E1D6E000E2D6E000E6D
:100E14002E6E000E2F6E000E306E000E326E4BEFF3
:100E240007F03250D8B419EF07F01BEF07F032EF98
:100E340007F0D8902636273628362936D8901A3621
:100E44001B361C361D3630AE2AEF07F02CEF07F0A8
:100E54002DEF07F01A80D8902D362E362F363036E7
:100E64001E50265C1F5027582050285821502958BE
:100E7400D8A03FEF07F041EF07F04AEF07F0308CBE
:100E84001E50265E1F50275A2050285A2150295A96
:100E9400322A190E326451EF07F053EF07F013EFC3
:100EA40007F02650271028102910D8B45CEF07F05B
:100EB4005EEF07F076EF07F02D8076EF07F0D8901D
:100EC4001A361B361C361D3630AE6BEF07F06DEF4D
:100ED40007F06EEF07F01A80D8902D362E362F3695
:100EE40030362B06D8A02C061CAE7BEF07F07DEF26
:100EF40007F061EF07F0000E326E30AE84EF07F0BA
:100F040086EF07F0AAEF07F0FF0E2D14226EFF0EF6
:100F14002E14236EFF0E2F14246E7F0E3014256EB4
:100F24002250231024102510D8B49BEF07F09DEF16
:100F340007F0A1EF07F0010E326EAAEF07F01AA036
:100F4400A6EF07F0A8EF07F0AAEF07F09DEF07F070
:100F54003250D8B4B0EF07F0B2EF07F0D6EF07F095
:100F6400010E1A26000E1B221C221D221DA0BDEFFD
:100F740007F0BFEF07F0D6EF07F01AC022F01BC04E
:100F840023F01CC024F01DC025F025342532243262
:100F94002332223222C01AF023C01BF024C01CF0DA
:100FA40025C01DF02B4A2C2A2CBEE1EF07F02C5053
:100FB40008E12B28D8A0E1EF07F0E3EF07F0EEEF0C
:100FC40007F0000E2C6E2B68000E1A6E000E1B6EBE
:100FD400000E1C6E000E1D6E2CBEFBEF07F02C5095
:100FE40006E12B04D8B0F9EF07F0FBEF07F009EFA7
:100FF40008F0000E2C6E000E2B6E000E1A6E000E02
:101004001B6E000E1C6E000E1D6E000E2A6E2BC091
:1010140031F031A010EF08F012EF08F015EF08F0EE
:101024001C8E16EF08F01C9ED89031301D6ECCEF4C
:1010340006F012001EC036F01FC037F020C038F092
:1010440021C039F022C03AF023C03BF024C03CF068
:1010540025C03DF03DBE31EF08F034EF08F0010E3D
:1010640035EF08F0000E346E356A34503510D8B4BC
:101074003EEF08F040EF08F050EF08F03D1E3C1E34
:101084003B1E3A1E391E381E371E366C000E3722A0
:10109400382239223A223B223C223D22000173BFEE
:1010A40056EF08F058EF08F059EF08F0749373BF47
:1010B40066EF08F0735106E17205D8B064EF08F0EA
:1010C40066EF08F06CEF08F0000E316E010E306E22
:1010D40070EF08F072C030F073C031F070C032F0BD
:1010E40071C033F034503510D8A47BEF08F07DEF95
:1010F40008F084EF08F074A582EF08F084EF08F09C
:1011040087EF08F03206D8A03306000E3F6E1F0E9C
:101114003E6E000E9F6F0BEF09F03E06D8A03F060F
:10112400800E3E24D96E000E3F20DA6E36C001F0E8
:1011340037C002F038C003F039C004F03AC005F0FB
:101144003BC006F03CC007F03DC008F00A0E096E33
:10115400000E0A6E000E0B6E000E0C6E000E0D6E6D
:10116400000E0E6E000E0F6E000E106E1FEC0EF0D1
:1011740001C026F002C027F003C028F004C029F003
:1011840005C02AF006C02BF007C02CF008C02DF0D3
:1011940026C013F028C014F02BEC12F01350300FBB
:1011A400DF6E3006D8A031063206D8A0330636C02A
:1011B40001F037C002F038C003F039C004F03AC07F
:1011C40005F03BC006F03CC007F03DC008F00A0E35
:1011D400096E000E0A6E000E0B6E000E0C6E000EF1
:1011E4000D6E000E0E6E000E0F6E000E106E5BEC98
:1011F4000DF001C036F002C037F003C038F004C06F
:1012040039F005C03AF006C03BF007C03CF008C016
:101214003DF03FBE16EF09F03F5008E13E04D8A070
:1012240016EF09F018EF09F049EF09F036503710BE
:10123400381039103A103B103C103D10D8A425EF5B
:1012440009F027EF09F08FEF08F031BE34EF09F011
:10125400315006E13004D8B032EF09F034EF09F030
:101264008FEF08F033BE3FEF09F0335008E132044A
:10127400D8A03FEF09F041EF09F049EF09F0000170
:1012840074B347EF09F049EF09F08FEF08F03450D9
:101294003510D8A450EF09F052EF09F05AEF09F0D5
:1012A400000174A558EF09F05AEF09F078EF09F03E
:1012B4003E06D8A03F0634503510D8A464EF09F098
:1012C40066EF09F06CEF09F0000E2F6E2B0E2E6EF8
:1012D40070EF09F0000E2F6E2D0E2E6E800E3E2440
:1012E400D96E000E3F20DA6E2EC0DFFF1CC011F055
:1012F4001DC012F0800E3E24136E000E3F20146EAB
:1013040032C015F033C016F0CDEC10F011C01CF053
:1013140012C01DF0120020EEB2F010EE01F00F0E1C
:10132400DBCFE3FFE806FCE2000E116E000E136E45
:10133400000E126E12501310D8A4A3EF09F0A5EFFB
:1013440009F0D7EF09F0FE0E8A6E420EE82EFED7A2
:1013540000D0AFEF09F001C011F081A8B4EF09F09B
:10136400B6EF09F0ADEF09F0BAEF09F002C011F0E1
:1013740081AABFEF09F0C1EF09F0B8EF09F0C5EF9A
:1013840009F003C011F081ACCAEF09F0CCEF09F009
:10139400C3EF09F0D0EF09F004C011F081AED5EF2E
:1013A40009F0D7EF09F0CEEF09F012041310D8A416
:1013B400DEEF09F0E0EF09F012EF0AF0FD0E8A6E9D
:1013C400420EE82EFED700D0EAEF09F005C011F076
:1013D40081A8EFEF09F0F1EF09F0E8EF09F0F5EF7C
:1013E40009F006C011F081AAFAEF09F0FCEF09F048
:1013F400F3EF09F000EF0AF007C011F081AC05EF3C
:101404000AF007EF0AF0FEEF09F00BEF0AF008C04C
:1014140011F081AE10EF0AF012EF0AF009EF0AF0B2
:10142400020E12181310D8A41AEF0AF01CEF0AF0D7
:101434004EEF0AF0FB0E8A6E420EE82EFED700D065
:1014440026EF0AF009C011F081A82BEF0AF02DEF66
:101454000AF024EF0AF031EF0AF00AC011F081AA71
:1014640036EF0AF038EF0AF02FEF0AF03CEF0AF0FB
:101474000BC011F081AC41EF0AF043EF0AF03AEFF0
:101484000AF047EF0AF00CC011F081AE4CEF0AF0FD
:101494004EEF0AF045EF0AF0030E12181310D8A409
:1014A40056EF0AF058EF0AF08AEF0AF0F70E8A6E48
:1014B400420EE82EFED700D062EF0AF00DC011F004
:1014C40081A867EF0AF069EF0AF060EF0AF06DEFA8
:1014D4000AF00EC011F081AA72EF0AF074EF0AF05C
:1014E4006BEF0AF078EF0AF00FC011F081AC7DEFDA
:1014F4000AF07FEF0AF076EF0AF083EF0AF010C0EB
:1015040011F081AE88EF0AF08AEF0AF081EF0AF059
:10151400124A132A13BE98EF0AF0135009E1040E7D
:10152400125CD8A098EF0AF09AEF0AF09CEF09F049
:101534001150120000017A510208786F7B51D8A033
:10154400E82A0008796F010E056E320E066E080E49
:10155400076E000E4BEC12F0C00EE1EC11F08DECB6
:1015640009F00001C26FC251D8B4BBEF0AF0BDEF5D
:101574000AF0CAEF0AF0C251B9EC11F0AA0E000148
:101584007F25D96EDA6A000EDA22C2C0DFFF7F2B14
:10159400020E0001D66F040ED56FBA0EE82EFED7E8
:1015A400D52FFCD7D62FFAD700F0040E00017F65A3
:1015B400DEEF0AF0E0EF0AF0B1EF0AF0AA0E016ED6
:1015C400000E026EC30E036E000E046E000E066E55
:1015D400040E056E01EC10F001500210D8A4F5EFD2
:1015E4000AF0F7EF0AF032EF0BF0D2EC12F0000E33
:1015F400056E010E066E080E076E000E4BEC12F01F
:10160400030E056E510E066E080E076E020E4BECAD
:1016140012F0020E846E1F0E0001D66F710ED56F8C
:101624001E0EE82EFED7D52FFCD7D62FFAD700F002
:10163400000E846E060E0001D66F130ED56FAD0E2C
:10164400E82EFED7D52FFCD7D62FFAD700D0D1EC71
:101654000EF0000E00017B6F000E7A6F92EF0BF01C
:10166400010E056E120E066E080E076E000E4BEC90
:1016740012F0010E846E1F0E0001D66F710ED56F2D
:101684001E0EE82EFED7D52FFCD7D62FFAD700F0A2
:10169400000E846E010E00017A257A6F000E7B2104
:1016A4007B6F030E7A197B11D8A45BEF0BF05DEF0F
:1016B4000BF075EF0BF0000E056E220E066E080E91
:1016C400076E000E4BEC12F0990E0001D66F310E2E
:1016D400D56FA20EE82EFED7D52FFCD7D62FFAD77A
:1016E40000F02BEF0BF0AF0E586E000E596E6B0E20
:1016F4005A6E080E5B6E78C05CF079C05DF090ECB9
:1017040011F0000E056E5C0E066E080E076E020EDA
:101714004BEC12F0AF0E036E000E046E61EC11F090
:101724000B0E0001D66F260ED56F5D0EE82EFED788
:10173400D52FFCD7D62FFAD700D0D2EC12F0000E5A
:1017440000017F6F9CEF0AF0120042C0D9FF43C032
:10175400DAFFDECFF6FFDDCFF7FF0800F550250AEC
:10176400D8A4B7EF0BF0B9EF0BF065EF0CF042C063
:10177400D9FF43C0DAFFDE2A000EDD22000E00018D
:10178400716F000E706F70C074F071C075F0726983
:10179400736942C0D9FF43C0DAFFDECFF6FFDDCF65
:1017A400F7FF0800F550640AD8B4DBEF0BF0DDEF67
:1017B4000BF0EFEF0BF042C0D9FF43C0DAFFDECFEE
:1017C400F6FFDDCFF7FF0800F550690AD8A4EDEF66
:1017D4000BF0EFEF0BF02FEF0CF042C0D9FF43C03A
:1017E400DAFFDE2A000EDD2244C0D9FF45C0DAFF4D
:1017F400DFCF46F0020EDE26DFCF47F0000EDD22FB
:1018040046C0D9FF47C0DAFFDECF48F0DDCF49F04C
:10181400000E49BEFF0E4A6E4B6E4C6E4D6E4E6E00
:101824004F6E40C01CF041C01DF048C01EF049C0BE
:101834001FF04AC020F04BC021F04CC022F04DC034
:1018440023F04EC024F04FC025F01CEC08F01CC05F
:1018540040F01DC041F080EF0CF042C0D9FF43C0FE
:10186400DAFFDECFF6FFDDCFF7FF0800F550250ADB
:10187400D8A43FEF0CF041EF0CF058EF0CF042C04D
:10188400D9FF43C0DAFFDE2A000EDD22000E026E0D
:10189400250E016E40C003F041C004F068EC10F066
:1018A400000E416E010E406E80EF0CF042C0D9FF75
:1018B40043C0DAFFDE2A000EDD22000E416E000E68
:1018C400406E80EF0CF042C0D9FF43C0DAFFDECF98
:1018D400F6FFDDCFF7FF0800F550016E026A40C045
:1018E40003F041C004F068EC10F042C0D9FF43C0DB
:1018F400DAFFDE2A000EDD2252EF0CF01200096E30
:101904000950D8B488EF0CF08AEF0CF0ACEF0CF06F
:1019140004BE91EF0CF08FEF0CF0ACEF0CF001C0B3
:1019240005F002C006F003C007F004C008F0051E6D
:10193400061E071E081E052A000E0622072208227C
:1019440005C00BF006C00CF007C00DF008C00EF087
:10195400B4EF0CF001C00BF002C00CF003C00DF0AA
:1019640004C00EF00150021003100410D8A4BDEFFF
:101974000CF0BFEF0CF0C9EF0CF0000E016E000E7E
:10198400026E000E036E000E046E5AEF0DF0960EFA
:101994000A6ED3EF0CF00A2AD8900E320D320C32B4
:1019A4000B32000E0B14056E000E0C14066E000EA6
:1019B4000D14076EFE0E0E14086E05500610071067
:1019C4000810D8A4E8EF0CF0EAEF0CF0CDEF0CF01F
:1019D400F8EF0CF00A2A010E0B26000E0C220D2241
:1019E4000E22D8900E320D320C320B32000E0B1434
:1019F400056E000E0C14066E000E0D14076EFF0E1D
:101A04000E14086E0550061007100810D8A40DEF28
:101A14000DF00FEF0DF0ECEF0CF017EF0DF00A06E0
:101A2400D8900B360C360D360E360DBE1CEF0DF06D
:101A34001EEF0DF026EF0DF0020E0A6024EF0DF0FC
:101A440026EF0DF011EF0DF00AB02BEF0DF02DEF96
:101A54000DF02EEF0DF00D9ED8900A320AC005F05D
:101A6400066A076A086A05C008F0076A066A056A12
:101A740005500B1206500C1207500D1208500E128E
:101A84000950D8B448EF0DF04AEF0DF052EF0DF0C5
:101A940004BE51EF0DF04FEF0DF052EF0DF00E8E2E
:101AA4000BC001F00CC002F00DC003F00EC004F036
:101AB4001200000E126E10BE64EF0DF062EF0DF016
:101AC40076EF0DF0101E0F1E0E1E0D1E0C1E0B1EAB
:101AD4000A1E096C000E0A220B220C220D220E2271
:101AE4000F221022010E126E08BE7DEF0DF07BEF67
:101AF4000DF08FEF0DF0081E071E061E051E041EB6
:101B0400031E021E016C000E02220322042205227F
:101B1400062207220822010E121A20EE13F0070EE5
:101B2400DE6AE806FDE209500A100B100C100D10D5
:101B34000E100F101010D8B4A2EF0DF0A4EF0DF09A
:101B4400F6EF0DF0010E116EB2EF0DF0D8900936DC
:101B54000A360B360C360D360E360F361036112A71
:101B640010AEB7EF0DF0B9EF0DF0A8EF0DF0D8906F
:101B740013361436153616361736183619361A36FD
:101B84000950015C0A5002580B5003580C50045879
:101B94000D5005580E5006580F500758105008584D
:101BA400D8A0D7EF0DF0D9EF0DF0EAEF0DF0095002
:101BB400015E0A50025A0B50035A0C50045A0D503D
:101BC400055A0E50065A0F50075A1050085A1380DF
:101BD400D89010320F320E320D320C320B320A32E0
:101BE4000932112EB9EF0DF01250D8B4FCEF0DF0FC
:101BF400FEEF0DF00EEF0EF01A1E191E181E171E22
:101C0400161E151E141E136C000E14221522162205
:101C14001722182219221A2213C001F014C002F04C
:101C240015C003F016C004F017C005F018C006F084
:101C340019C007F01AC008F01200000E126E08BE98
:101C440028EF0EF026EF0EF03AEF0EF0081E071EF6
:101C5400061E051E041E031E021E016C000E022237
:101C6400032204220522062207220822010E126EF4
:101C740010BE41EF0EF03FEF0EF051EF0EF0101ECC
:101C84000F1E0E1E0D1E0C1E0B1E0A1E096C000ECE
:101C94000A220B220C220D220E220F22102209509E
:101CA4000A100B100C100D100E100F101010D8B4D9
:101CB4005EEF0EF060EF0EF0A8EF0EF0010E116E65
:101CC4006EEF0EF0D89009360A360B360C360D3608
:101CD4000E360F361036112A10AE73EF0EF075EF74
:101CE4000EF064EF0EF00950015C0A5002580B50DC
:101CF40003580C5004580D5005580E5006580F50F8
:101D0400075810500858D8A08AEF0EF08CEF0EF048
:101D14009CEF0EF00950015E0A50025A0B50035A10
:101D24000C50045A0D50055A0E50065A0F50075ABB
:101D34001050085AD89010320F320E320D320C3235
:101D44000B320A320932112E75EF0EF01250D8B44C
:101D5400AEEF0EF0B0EF0EF0C0EF0EF0081E071E4F
:101D6400061E051E041E031E021E016C000E022226
:101D740003220422052206220722082201C001F0C0
:101D840002C002F003C003F004C004F005C005F073
:101D940006C006F007C007F008C008F01200700E75
:101DA400D312D350FC0B0209D36E9268A1EC12F04B
:101DB400010E056E420E066E080E076E000E4BEC09
:101DC40012F0C00EE1EC11F0C150F00B0E09C16E1F
:101DD400CF0EC116C30EC216C050C70B1009C06E79
:101DE400C050F80B0109C06EC08EC280C282C2B25C
:101DF400FEEF0EF000EF0FF0F9EF0EF0C4CF76F027
:101E04000001776B76515E6EC350766F5EC077F0DB
:101E140076C001F077C002F0036A046A000E81EC18
:101E24000CF001C06AF002C06BF003C06CF004C097
:101E34006DF0000E056E000E066EFA0E076E430E70
:101E4400086E6AC001F06BC002F06CC003F06DC094
:101E540004F03AEC04F001C01AF002C01BF003C015
:101E64001CF004C01DF0000E1E6EC00E1F6E7F0E0F
:101E7400206E440E216E4FEC06F01AC06AF01BC0AF
:101E84006BF01CC06CF01DC06DF06AC001F06BC03B
:101E940002F06CC003F06DC004F07EEC0FF0015052
:101EA40000017C6F0B0E5F6E260E5E6E5E0EE82EDA
:101EB400FED75E2EFCD75F2EFAD7A00E586E000E0A
:101EC400596E6F0E5A6E080E5B6E7CC05CF05D6AD4
:101ED40090EC11F0000E056E660E066E080E076E8D
:101EE400020E4BEC12F0A00E036E000E046E61ECB9
:101EF40011F0F8EF0EF01200033404340A6E0A50A5
:101F0400D8A487EF0FF089EF0FF093EF0FF0000ED6
:101F1400016E000E026E000E036E000E046E00EFE2
:101F240010F001C005F002C006F003C007F004C0C1
:101F340008F0200EA3EF0FF0D890083207320632D3
:101F44000532E82E9EEF0FF00550096E038EFF0E4A
:101F54000116FF0E0216FF0E0316000E0416960E4F
:101F64000A5E0ABEBAEF0FF0B8EF0FF0D0EF0FF031
:101F74000A50800A970FD8B0C2EF0FF0C4EF0FF0E9
:101F8400C6EF0FF089EF0FF0D8900432033202321B
:101F940001320A3EC6EF0FF0E8EF0FF01F0E0A649D
:101FA400D6EF0FF0D8EF0FF0E0EF0FF089EF0FF05E
:101FB400D89001360236033604360A060A50D8A4ED
:101FC400E6EF0FF0E8EF0FF0DAEF0FF00950D8B4B6
:101FD400EEEF0FF0F0EF0FF0F8EF0FF0041E031E1A
:101FE400021E016C000E02220322042201C001F031
:101FF40002C002F003C003F004C004F0120001C0E8
:1020040009F002C00AF003C00BF004C00CF005068E
:10201400D8A00606052806E10628D8A414EF10F077
:1020240016EF10F023EF10F0000E026E000E016E9A
:1020340067EF10F0094A0A2A0B4A0C2A0506D8A0B1
:10204400060609C0D9FF0AC0DAFFDF50D8B42DEF65
:1020540010F02FEF10F055EF10F00BC0D9FF0CC0AB
:10206400DAFFDF50D8B439EF10F03BEF10F055EF42
:1020740010F005500610D8B442EF10F044EF10F001
:1020840055EF10F00BC0D9FF0CC0DAFF09C0E1FF17
:102094000AC0E2FFDE50E618D8B453EF10F055EF53
:1020A40010F01CEF10F009C0D9FF0AC0DAFFDF50AE
:1020B400076E0BC0D9FF0CC0DAFFDF50086E085062
:1020C400075C016E026AD8A00206120003500410D5
:1020D400D8B46FEF10F071EF10F07AEF10F00350F6
:1020E4000410D8A478EF10F07AEF10F07FEF10F01E
:1020F4000150E3EC12F0CCEF10F020EE09F00350A5
:10210400D9260450DA22DE50DE10D8B48CEF10F059
:102114008EEF10F0A9EF10F020EE09F00350D9264D
:102124000450DA2210EE03F00350E1260450E222B8
:10213400DE50E65CE650800A096EDE50800A0958DB
:10214400D8B0A7EF10F0A9EF10F0CCEF10F020EE0C
:1021540003F00350D9260450DA22DECF05F0DDCF98
:1021640006F003C0D9FF04C0DAFFDECF07F0DDCFED
:1021740008F005500724D96E06500820DA6E01C015
:10218400DFFF20EE03F00350D9260450DA22DE2AC2
:10219400000EDD221200000174A1D3EF10F0D5EF80
:1021A40010F0DFEF10F013C00AF014C00BF011C0F0
:1021B4000CF012C00DF009EC12F016BEE4EF10F0B2
:1021C400E6EF10F0ECEF10F015C01AF016C01BF09B
:1021D400F0EF10F0000E1B6E000E1A6E000E196E5A
:1021E400000E186E02EF11F0000E026E200E016E4A
:1021F40011C003F012C004F068EC10F0184A192A58
:102204001A50185C1950800A176E1B50800A175810
:10221400D8A00FEF11F011EF11F0F6EF10F000015C
:1022240074B117EF11F019EF11F023EF11F013C08F
:102234000AF014C00BF011C00CF012C00DF009EC40
:1022440012F013C001F014C002F086EC12F01A5020
:102254000124116E1B500220126E120052C056F05F
:1022640053C057F0000E00016F6F000E6E6F4EEFFB
:1022740011F050C040F051C041F0560E426E000EB5
:10228400436E54C044F055C045F0A7EC0BF04050E9
:1022940000016E2741506F2356C0F6FF57C0F7FF69
:1022A4000800F5500009D8A45AEF11F05CEF11F0C2
:1022B4003BEF11F06EC050F06FC051F0120077EF99
:1022C40011F003C0F6FF04C0F7FFF86A070EF764C5
:1022D40003D00800F55005D0F6CFE1FFF7CFE2FFB9
:1022E400E750B9EC11F0034A042A03C0F6FF04C016
:1022F400F7FFF86A070EF76403D00800F55005D01D
:10230400F6CFE1FFF7CFE2FFE7500009D8A48DEF45
:1023140011F08FEF11F063EF11F012005C0E000169
:10232400C86F000EC96F58C0CAF059C0CBF0000E78
:10233400CE6F000ECD6F000ED46F000ED36FCA0E99
:10234400506E000E516E5AC052F05BC053F0C80E6E
:10235400546E000E556E30EC11F00001CD5158242E
:10236400D96ECE515920DA6E000EDF6E1200026E65
:1023740002C001F0F00E01168C500F0B01108C6E90
:102384008C808C8200F08C92030E016E980EE82EE5
:10239400FED7012EFCD702C001F0013AF00E01165F
:1023A4008C500F0B01108C6E8C8200F08C92080EF6
:1023B400016ECA0EE82EFED7012EFCD71200026E63
:1023C40002C001F0F00E01168C500F0B01108C6E40
:1023D4008C908C8200F08C92030E016E980EE82E85
:1023E400FED7012EFCD702C001F0013AF00E01160F
:1023F4008C500F0B01108C6E8C8200F08C92080EA6
:10240400016ECA0EE82EFED7012EFCD71200000E74
:10241400106E000E0F6E1AEF12F00EC001F0026A79
:102424000CC003F00DC004F068EC10F00F4A102A41
:102434000F500A24D96E10500B20DA6EDF500E6E46
:102444000E50D8A428EF12F02AEF12F00FEF12F07A
:10245400120014BE38EF12F0145006E11304D8B081
:1024640036EF12F038EF12F046EF12F013C015F009
:1024740014C016F0151E161E154A162A15C013F0A0
:1024840016C014F04AEF12F013C013F014C014F085
:102494001200086E020E086052EF12F054EF12F0B0
:1024A4005DEF12F005500F0B8009096E0950E1EC45
:1024B40011F064EF12F005500F0BC009096E0950BA
:1024C400E1EC11F006C003F007C004F061EC11F078
:1024D40012008E0EF66E250EF76E000EF86E00EEEC
:1024E400B2F010EE16F00900F5CFEEFFE550E15022
:1024F400FAE100EE60F0520EEE6AE806FDE1000E2D
:10250400F86E0001BBEF12F001C003F002C004F04A
:102514008EEF12F0014A022A01C0D9FF02C0DAFF8D
:10252400DF50D8A498EF12F09AEF12F08CEF12F06B
:102534000350015C016E04500258026E1200000E3A
:10254400956E270E036EF50EE82EFED7032EFCD7EC
:1025540000F0020EE1EC11F0280EE1EC11F0010E96
:10256400E1EC11F00C0EE1EC11F0060EE1EC11F0CF
:102574001200720ED36E000E966EA1EC12F0DDEC1A
:1025840012F09CEC0AF000EF00F0313233413435A4
:102594003642373839432A3023443032303232001D
:1025A400010EE1EC11F0080E036ECA0EE82EFED700
:1025B400032EFCD71200F00E9316F00E9312F19E28
:0425C40012001200EF
:020000040020DA
:08000000FFFFFFFFFFFFFFFF00
:020000040030CA
:0E0000000008191EFF0181FF0FC00FE00F4026
:00000001FF
